{
  "contractName": "FederatedLearning",
  "abi": [
    {
      "inputs": [],
      "stateMutability": "nonpayable",
      "type": "constructor"
    },
    {
      "anonymous": false,
      "inputs": [],
      "name": "AllUpdatesSubmitted",
      "type": "event"
    },
    {
      "anonymous": false,
      "inputs": [
        {
          "indexed": true,
          "internalType": "address",
          "name": "taskPublisher",
          "type": "address"
        },
        {
          "indexed": false,
          "internalType": "string",
          "name": "newGlobalModelHash",
          "type": "string"
        }
      ],
      "name": "GlobalModelUpdated",
      "type": "event"
    },
    {
      "anonymous": false,
      "inputs": [
        {
          "indexed": true,
          "internalType": "address",
          "name": "participant",
          "type": "address"
        }
      ],
      "name": "ParticipantDeregistered",
      "type": "event"
    },
    {
      "anonymous": false,
      "inputs": [
        {
          "indexed": true,
          "internalType": "address",
          "name": "participant",
          "type": "address"
        }
      ],
      "name": "ParticipantEnrolled",
      "type": "event"
    },
    {
      "anonymous": false,
      "inputs": [],
      "name": "TrainingTaskCompleted",
      "type": "event"
    },
    {
      "anonymous": false,
      "inputs": [],
      "name": "TrainingTaskStarted",
      "type": "event"
    },
    {
      "inputs": [],
      "name": "globalModelHash",
      "outputs": [
        {
          "internalType": "string",
          "name": "",
          "type": "string"
        }
      ],
      "stateMutability": "view",
      "type": "function",
      "constant": true
    },
    {
      "inputs": [],
      "name": "modelParameterHash",
      "outputs": [
        {
          "internalType": "string",
          "name": "",
          "type": "string"
        }
      ],
      "stateMutability": "view",
      "type": "function",
      "constant": true
    },
    {
      "inputs": [
        {
          "internalType": "uint256",
          "name": "",
          "type": "uint256"
        }
      ],
      "name": "participantAddresses",
      "outputs": [
        {
          "internalType": "address",
          "name": "",
          "type": "address"
        }
      ],
      "stateMutability": "view",
      "type": "function",
      "constant": true
    },
    {
      "inputs": [
        {
          "internalType": "address",
          "name": "",
          "type": "address"
        }
      ],
      "name": "participants",
      "outputs": [
        {
          "internalType": "bool",
          "name": "registered",
          "type": "bool"
        },
        {
          "internalType": "string",
          "name": "localModelUpdateHash",
          "type": "string"
        }
      ],
      "stateMutability": "view",
      "type": "function",
      "constant": true
    },
    {
      "inputs": [],
      "name": "registrationOpen",
      "outputs": [
        {
          "internalType": "bool",
          "name": "",
          "type": "bool"
        }
      ],
      "stateMutability": "view",
      "type": "function",
      "constant": true
    },
    {
      "inputs": [],
      "name": "rewardPerUpdate",
      "outputs": [
        {
          "internalType": "uint256",
          "name": "",
          "type": "uint256"
        }
      ],
      "stateMutability": "view",
      "type": "function",
      "constant": true
    },
    {
      "inputs": [],
      "name": "taskPublisher",
      "outputs": [
        {
          "internalType": "address",
          "name": "",
          "type": "address"
        }
      ],
      "stateMutability": "view",
      "type": "function",
      "constant": true
    },
    {
      "inputs": [],
      "name": "trainingTaskCompleted",
      "outputs": [
        {
          "internalType": "bool",
          "name": "",
          "type": "bool"
        }
      ],
      "stateMutability": "view",
      "type": "function",
      "constant": true
    },
    {
      "inputs": [],
      "name": "trainingTaskStarted",
      "outputs": [
        {
          "internalType": "bool",
          "name": "",
          "type": "bool"
        }
      ],
      "stateMutability": "view",
      "type": "function",
      "constant": true
    },
    {
      "inputs": [],
      "name": "updatesSubmitted",
      "outputs": [
        {
          "internalType": "uint256",
          "name": "",
          "type": "uint256"
        }
      ],
      "stateMutability": "view",
      "type": "function",
      "constant": true
    },
    {
      "inputs": [
        {
          "internalType": "string",
          "name": "_globalModelHash",
          "type": "string"
        },
        {
          "internalType": "string",
          "name": "_modelParameterHash",
          "type": "string"
        }
      ],
      "name": "publishTrainingTask",
      "outputs": [],
      "stateMutability": "nonpayable",
      "type": "function"
    },
    {
      "inputs": [],
      "name": "openRegistration",
      "outputs": [],
      "stateMutability": "nonpayable",
      "type": "function"
    },
    {
      "inputs": [],
      "name": "closeRegistration",
      "outputs": [],
      "stateMutability": "nonpayable",
      "type": "function"
    },
    {
      "inputs": [],
      "name": "startTrainingTask",
      "outputs": [],
      "stateMutability": "nonpayable",
      "type": "function"
    },
    {
      "inputs": [],
      "name": "enrollParticipant",
      "outputs": [],
      "stateMutability": "nonpayable",
      "type": "function"
    },
    {
      "inputs": [
        {
          "internalType": "address",
          "name": "_participantAddress",
          "type": "address"
        }
      ],
      "name": "deregisterParticipant",
      "outputs": [],
      "stateMutability": "nonpayable",
      "type": "function"
    },
    {
      "inputs": [
        {
          "internalType": "string",
          "name": "_localModelUpdateHash",
          "type": "string"
        }
      ],
      "name": "uploadLocalModelUpdate",
      "outputs": [],
      "stateMutability": "nonpayable",
      "type": "function"
    },
    {
      "inputs": [],
      "name": "aggregateLocalModelUpdates",
      "outputs": [
        {
          "internalType": "string[]",
          "name": "",
          "type": "string[]"
        }
      ],
      "stateMutability": "nonpayable",
      "type": "function"
    },
    {
      "inputs": [
        {
          "internalType": "string",
          "name": "_globalModelHash",
          "type": "string"
        }
      ],
      "name": "updateGlobalModelHash",
      "outputs": [],
      "stateMutability": "nonpayable",
      "type": "function"
    },
    {
      "inputs": [],
      "name": "markTrainingTaskAsCompleted",
      "outputs": [],
      "stateMutability": "nonpayable",
      "type": "function"
    }
  ],
  "bytecode": "0x608060405234801561001057600080fd5b50336000806101000a81548173ffffffffffffffffffffffffffffffffffffffff021916908373ffffffffffffffffffffffffffffffffffffffff1602179055506000600460016101000a81548160ff0219169083151502179055506000600460026101000a81548160ff0219169083151502179055506122d6806100966000396000f3fe608060405234801561001057600080fd5b506004361061012c5760003560e01c80635f44531a116100ad5780638e68212b116100715780638e68212b146102c4578063bca12847146102e0578063cf4fdf32146102fe578063d06e4ee71461031a578063d96ee8ac146103245761012c565b80635f44531a1461024257806360f61a561461026057806366f199951461027e578063736f88cd1461029c5780637dc673bc146102ba5761012c565b80633b346f35116100f45780633b346f35146101c45780634bfbd716146101e25780634ce13b21146101ec57806354ffbddb146102085780635f3af41a146102385761012c565b806309e69ede146101315780630f2943c2146101625780631388253b146101805780631e10ae621461018a578063279b103f146101a6575b600080fd5b61014b60048036038101906101469190611773565b610342565b604051610159929190611854565b60405180910390f35b61016a6103fb565b6040516101779190611990565b60405180910390f35b61018861072a565b005b6101a4600480360381019061019f9190611ae7565b610957565b005b6101ae610b7b565b6040516101bb9190611b3f565b60405180910390f35b6101cc610b9f565b6040516101d99190611b5a565b60405180910390f35b6101ea610c2d565b005b61020660048036038101906102019190611b7c565b610db0565b005b610222600480360381019061021d9190611c2a565b610fe4565b60405161022f9190611b3f565b60405180910390f35b610240611023565b005b61024a6110fa565b6040516102579190611b5a565b60405180910390f35b610268611188565b6040516102759190611c66565b60405180910390f35b61028661118e565b6040516102939190611c66565b60405180910390f35b6102a4611194565b6040516102b19190611c81565b60405180910390f35b6102c26111a7565b005b6102de60048036038101906102d99190611773565b611252565b005b6102e861138c565b6040516102f59190611c81565b60405180910390f35b61031860048036038101906103139190611ae7565b61139f565b005b6103226114b5565b005b61032c611560565b6040516103399190611c81565b60405180910390f35b60076020528060005260406000206000915090508060000160009054906101000a900460ff169080600101805461037890611ccb565b80601f01602080910402602001604051908101604052809291908181526020018280546103a490611ccb565b80156103f15780601f106103c6576101008083540402835291602001916103f1565b820191906000526020600020905b8154815290600101906020018083116103d457829003601f168201915b5050505050905082565b606060008054906101000a900473ffffffffffffffffffffffffffffffffffffffff1673ffffffffffffffffffffffffffffffffffffffff163373ffffffffffffffffffffffffffffffffffffffff161461048b576040517f08c379a000000000000000000000000000000000000000000000000000000000815260040161048290611d6f565b60405180910390fd5b60068054905060035410156104d5576040517f08c379a00000000000000000000000000000000000000000000000000000000081526004016104cc90611e01565b60405180910390fd5b600060068054905067ffffffffffffffff8111156104f6576104f56119bc565b5b60405190808252806020026020018201604052801561052957816020015b60608152602001906001900390816105145790505b50905060005b60068054905081101561071a57600760006006838154811061055457610553611e21565b5b9060005260206000200160009054906101000a900473ffffffffffffffffffffffffffffffffffffffff1673ffffffffffffffffffffffffffffffffffffffff1673ffffffffffffffffffffffffffffffffffffffff16815260200190815260200160002060010180546105c790611ccb565b80601f01602080910402602001604051908101604052809291908181526020018280546105f390611ccb565b80156106405780601f1061061557610100808354040283529160200191610640565b820191906000526020600020905b81548152906001019060200180831161062357829003601f168201915b505050505082828151811061065857610657611e21565b5b602002602001018190525060405180602001604052806000815250600760006006848154811061068b5761068a611e21565b5b9060005260206000200160009054906101000a900473ffffffffffffffffffffffffffffffffffffffff1673ffffffffffffffffffffffffffffffffffffffff1673ffffffffffffffffffffffffffffffffffffffff1681526020019081526020016000206001019080519060200190610706929190611573565b50808061071290611e7f565b91505061052f565b5060006003819055508091505090565b600460029054906101000a900460ff16610779576040517f08c379a000000000000000000000000000000000000000000000000000000000815260040161077090611f14565b60405180910390fd5b600760003373ffffffffffffffffffffffffffffffffffffffff1673ffffffffffffffffffffffffffffffffffffffff16815260200190815260200160002060000160009054906101000a900460ff1615610809576040517f08c379a000000000000000000000000000000000000000000000000000000000815260040161080090611fa6565b60405180910390fd5b604051806040016040528060011515815260200160405180602001604052806000815250815250600760003373ffffffffffffffffffffffffffffffffffffffff1673ffffffffffffffffffffffffffffffffffffffff16815260200190815260200160002060008201518160000160006101000a81548160ff02191690831515021790555060208201518160010190805190602001906108ab929190611573565b509050506006339080600181540180825580915050600190039060005260206000200160009091909190916101000a81548173ffffffffffffffffffffffffffffffffffffffff021916908373ffffffffffffffffffffffffffffffffffffffff1602179055503373ffffffffffffffffffffffffffffffffffffffff167fd1de25e5823e89fe190deea4ee5d89f72828597f5a1f4f51995dd66f63ecc85460405160405180910390a2565b600460009054906101000a900460ff166109a6576040517f08c379a000000000000000000000000000000000000000000000000000000000815260040161099d90612038565b60405180910390fd5b600760003373ffffffffffffffffffffffffffffffffffffffff1673ffffffffffffffffffffffffffffffffffffffff16815260200190815260200160002060000160009054906101000a900460ff16610a35576040517f08c379a0000000000000000000000000000000000000000000000000000000008152600401610a2c906120ca565b60405180910390fd5b600460019054906101000a900460ff1615610a85576040517f08c379a0000000000000000000000000000000000000000000000000000000008152600401610a7c9061215c565b60405180910390fd5b80600760003373ffffffffffffffffffffffffffffffffffffffff1673ffffffffffffffffffffffffffffffffffffffff1681526020019081526020016000206001019080519060200190610adb929190611573565b5060036000815480929190610aef90611e7f565b91905055503373ffffffffffffffffffffffffffffffffffffffff166108fc6005549081150290604051600060405180830381858888f19350505050158015610b3c573d6000803e3d6000fd5b5060068054905060035410610b78577fc3c236c8e8278c37ac1286a91c38c5de2a138caf70716d8d620bf45c17cc83f160405160405180910390a15b50565b60008054906101000a900473ffffffffffffffffffffffffffffffffffffffff1681565b60018054610bac90611ccb565b80601f0160208091040260200160405190810160405280929190818152602001828054610bd890611ccb565b8015610c255780601f10610bfa57610100808354040283529160200191610c25565b820191906000526020600020905b815481529060010190602001808311610c0857829003601f168201915b505050505081565b60008054906101000a900473ffffffffffffffffffffffffffffffffffffffff1673ffffffffffffffffffffffffffffffffffffffff163373ffffffffffffffffffffffffffffffffffffffff1614610cbb576040517f08c379a0000000000000000000000000000000000000000000000000000000008152600401610cb290611d6f565b60405180910390fd5b60001515600460029054906101000a900460ff16151514610d11576040517f08c379a0000000000000000000000000000000000000000000000000000000008152600401610d08906121ee565b60405180910390fd5b60001515600460019054906101000a900460ff16151514610d67576040517f08c379a0000000000000000000000000000000000000000000000000000000008152600401610d5e90612280565b60405180910390fd5b6001600460006101000a81548160ff0219169083151502179055507fc14de606c29fd112d2c1d5eeeecf32145328f3f7feb53a0225da7e90935f570f60405160405180910390a1565b60008054906101000a900473ffffffffffffffffffffffffffffffffffffffff1673ffffffffffffffffffffffffffffffffffffffff163373ffffffffffffffffffffffffffffffffffffffff1614610e3e576040517f08c379a0000000000000000000000000000000000000000000000000000000008152600401610e3590611d6f565b60405180910390fd5b8160019080519060200190610e54929190611573565b508060029080519060200190610e6b929190611573565b5060006003819055506000600460016101000a81548160ff0219169083151502179055506000600460026101000a81548160ff02191690831515021790555060005b600680549050811015610f71576007600060068381548110610ed257610ed1611e21565b5b9060005260206000200160009054906101000a900473ffffffffffffffffffffffffffffffffffffffff1673ffffffffffffffffffffffffffffffffffffffff1673ffffffffffffffffffffffffffffffffffffffff168152602001908152602001600020600080820160006101000a81549060ff0219169055600182016000610f5c91906115f9565b50508080610f6990611e7f565b915050610ead565b5060066000610f809190611639565b600067ffffffffffffffff811115610f9b57610f9a6119bc565b5b604051908082528060200260200182016040528015610fc95781602001602082028036833780820191505090505b5060069080519060200190610fdf92919061165a565b505050565b60068181548110610ff457600080fd5b906000526020600020016000915054906101000a900473ffffffffffffffffffffffffffffffffffffffff1681565b60008054906101000a900473ffffffffffffffffffffffffffffffffffffffff1673ffffffffffffffffffffffffffffffffffffffff163373ffffffffffffffffffffffffffffffffffffffff16146110b1576040517f08c379a00000000000000000000000000000000000000000000000000000000081526004016110a890611d6f565b60405180910390fd5b6001600460016101000a81548160ff0219169083151502179055507ffec083bc5cddce37b6964fffbe16dc3939bba878285738b6511e6abb2180120760405160405180910390a1565b6002805461110790611ccb565b80601f016020809104026020016040519081016040528092919081815260200182805461113390611ccb565b80156111805780601f1061115557610100808354040283529160200191611180565b820191906000526020600020905b81548152906001019060200180831161116357829003601f168201915b505050505081565b60035481565b60055481565b600460029054906101000a900460ff1681565b60008054906101000a900473ffffffffffffffffffffffffffffffffffffffff1673ffffffffffffffffffffffffffffffffffffffff163373ffffffffffffffffffffffffffffffffffffffff1614611235576040517f08c379a000000000000000000000000000000000000000000000000000000000815260040161122c90611d6f565b60405180910390fd5b6000600460026101000a81548160ff021916908315150217905550565b60008054906101000a900473ffffffffffffffffffffffffffffffffffffffff1673ffffffffffffffffffffffffffffffffffffffff163373ffffffffffffffffffffffffffffffffffffffff16146112e0576040517f08c379a00000000000000000000000000000000000000000000000000000000081526004016112d790611d6f565b60405180910390fd5b600760008273ffffffffffffffffffffffffffffffffffffffff1673ffffffffffffffffffffffffffffffffffffffff168152602001908152602001600020600080820160006101000a81549060ff021916905560018201600061134491906115f9565b50508073ffffffffffffffffffffffffffffffffffffffff167ffc239f381c2de7625fbd483171899d597fa50aa47f5cf61ec4b9d2d3e4bf90ba60405160405180910390a250565b600460009054906101000a900460ff1681565b60008054906101000a900473ffffffffffffffffffffffffffffffffffffffff1673ffffffffffffffffffffffffffffffffffffffff163373ffffffffffffffffffffffffffffffffffffffff161461142d576040517f08c379a000000000000000000000000000000000000000000000000000000000815260040161142490611d6f565b60405180910390fd5b8060019080519060200190611443929190611573565b5060008054906101000a900473ffffffffffffffffffffffffffffffffffffffff1673ffffffffffffffffffffffffffffffffffffffff167f3759b1b0bf89e3dd202b6c7a3610b4ffccb2a53f2a78c84e07032f4e1a74fe35826040516114aa9190611b5a565b60405180910390a250565b60008054906101000a900473ffffffffffffffffffffffffffffffffffffffff1673ffffffffffffffffffffffffffffffffffffffff163373ffffffffffffffffffffffffffffffffffffffff1614611543576040517f08c379a000000000000000000000000000000000000000000000000000000000815260040161153a90611d6f565b60405180910390fd5b6001600460026101000a81548160ff021916908315150217905550565b600460019054906101000a900460ff1681565b82805461157f90611ccb565b90600052602060002090601f0160209004810192826115a157600085556115e8565b82601f106115ba57805160ff19168380011785556115e8565b828001600101855582156115e8579182015b828111156115e75782518255916020019190600101906115cc565b5b5090506115f591906116e4565b5090565b50805461160590611ccb565b6000825580601f106116175750611636565b601f01602090049060005260206000209081019061163591906116e4565b5b50565b508054600082559060005260206000209081019061165791906116e4565b50565b8280548282559060005260206000209081019282156116d3579160200282015b828111156116d25782518260006101000a81548173ffffffffffffffffffffffffffffffffffffffff021916908373ffffffffffffffffffffffffffffffffffffffff1602179055509160200191906001019061167a565b5b5090506116e091906116e4565b5090565b5b808211156116fd5760008160009055506001016116e5565b5090565b6000604051905090565b600080fd5b600080fd5b600073ffffffffffffffffffffffffffffffffffffffff82169050919050565b600061174082611715565b9050919050565b61175081611735565b811461175b57600080fd5b50565b60008135905061176d81611747565b92915050565b6000602082840312156117895761178861170b565b5b60006117978482850161175e565b91505092915050565b60008115159050919050565b6117b5816117a0565b82525050565b600081519050919050565b600082825260208201905092915050565b60005b838110156117f55780820151818401526020810190506117da565b83811115611804576000848401525b50505050565b6000601f19601f8301169050919050565b6000611826826117bb565b61183081856117c6565b93506118408185602086016117d7565b6118498161180a565b840191505092915050565b600060408201905061186960008301856117ac565b818103602083015261187b818461181b565b90509392505050565b600081519050919050565b600082825260208201905092915050565b6000819050602082019050919050565b600082825260208201905092915050565b60006118cc826117bb565b6118d681856118b0565b93506118e68185602086016117d7565b6118ef8161180a565b840191505092915050565b600061190683836118c1565b905092915050565b6000602082019050919050565b600061192682611884565b611930818561188f565b935083602082028501611942856118a0565b8060005b8581101561197e578484038952815161195f85826118fa565b945061196a8361190e565b925060208a01995050600181019050611946565b50829750879550505050505092915050565b600060208201905081810360008301526119aa818461191b565b905092915050565b600080fd5b600080fd5b7f4e487b7100000000000000000000000000000000000000000000000000000000600052604160045260246000fd5b6119f48261180a565b810181811067ffffffffffffffff82111715611a1357611a126119bc565b5b80604052505050565b6000611a26611701565b9050611a3282826119eb565b919050565b600067ffffffffffffffff821115611a5257611a516119bc565b5b611a5b8261180a565b9050602081019050919050565b82818337600083830152505050565b6000611a8a611a8584611a37565b611a1c565b905082815260208101848484011115611aa657611aa56119b7565b5b611ab1848285611a68565b509392505050565b600082601f830112611ace57611acd6119b2565b5b8135611ade848260208601611a77565b91505092915050565b600060208284031215611afd57611afc61170b565b5b600082013567ffffffffffffffff811115611b1b57611b1a611710565b5b611b2784828501611ab9565b91505092915050565b611b3981611735565b82525050565b6000602082019050611b546000830184611b30565b92915050565b60006020820190508181036000830152611b74818461181b565b905092915050565b60008060408385031215611b9357611b9261170b565b5b600083013567ffffffffffffffff811115611bb157611bb0611710565b5b611bbd85828601611ab9565b925050602083013567ffffffffffffffff811115611bde57611bdd611710565b5b611bea85828601611ab9565b9150509250929050565b6000819050919050565b611c0781611bf4565b8114611c1257600080fd5b50565b600081359050611c2481611bfe565b92915050565b600060208284031215611c4057611c3f61170b565b5b6000611c4e84828501611c15565b91505092915050565b611c6081611bf4565b82525050565b6000602082019050611c7b6000830184611c57565b92915050565b6000602082019050611c9660008301846117ac565b92915050565b7f4e487b7100000000000000000000000000000000000000000000000000000000600052602260045260246000fd5b60006002820490506001821680611ce357607f821691505b60208210811415611cf757611cf6611c9c565b5b50919050565b7f4f6e6c7920746865207461736b207075626c69736865722063616e2063616c6c60008201527f20746869732066756e6374696f6e000000000000000000000000000000000000602082015250565b6000611d59602e836117c6565b9150611d6482611cfd565b604082019050919050565b60006020820190508181036000830152611d8881611d4c565b9050919050565b7f416c6c207061727469636970616e7473206d757374207375626d69742074686560008201527f69722075706461746573206265666f7265206167677265676174696f6e000000602082015250565b6000611deb603d836117c6565b9150611df682611d8f565b604082019050919050565b60006020820190508181036000830152611e1a81611dde565b9050919050565b7f4e487b7100000000000000000000000000000000000000000000000000000000600052603260045260246000fd5b7f4e487b7100000000000000000000000000000000000000000000000000000000600052601160045260246000fd5b6000611e8a82611bf4565b91507fffffffffffffffffffffffffffffffffffffffffffffffffffffffffffffffff821415611ebd57611ebc611e50565b5b600182019050919050565b7f526567697374726174696f6e2069732063757272656e746c7920636c6f736564600082015250565b6000611efe6020836117c6565b9150611f0982611ec8565b602082019050919050565b60006020820190508181036000830152611f2d81611ef1565b9050919050565b7f54686973206164647265737320697320616c726561647920726567697374657260008201527f65642061732061207061727469636970616e7400000000000000000000000000602082015250565b6000611f906033836117c6565b9150611f9b82611f34565b604082019050919050565b60006020820190508181036000830152611fbf81611f83565b9050919050565b7f547261696e696e67207461736b20686173206e6f74207374617274656420796560008201527f7400000000000000000000000000000000000000000000000000000000000000602082015250565b60006120226021836117c6565b915061202d82611fc6565b604082019050919050565b6000602082019050818103600083015261205181612015565b9050919050565b7f4f6e6c792072656769737465726564207061727469636970616e74732063616e60008201527f207375626d697420757064617465730000000000000000000000000000000000602082015250565b60006120b4602f836117c6565b91506120bf82612058565b604082019050919050565b600060208201905081810360008301526120e3816120a7565b9050919050565b7f547261696e696e67207461736b2068617320616c7265616479206265656e206360008201527f6f6d706c65746564000000000000000000000000000000000000000000000000602082015250565b60006121466028836117c6565b9150612151826120ea565b604082019050919050565b6000602082019050818103600083015261217581612139565b9050919050565b7f43616e6e6f7420737461727420747261696e696e67207461736b207768696c6560008201527f20726567697374726174696f6e206973206f70656e0000000000000000000000602082015250565b60006121d86035836117c6565b91506121e38261217c565b604082019050919050565b60006020820190508181036000830152612207816121cb565b9050919050565b7f43616e6e6f7420737461727420747261696e696e67207461736b20616674657260008201527f20697420686173206265656e20636f6d706c6574656400000000000000000000602082015250565b600061226a6036836117c6565b91506122758261220e565b604082019050919050565b600060208201905081810360008301526122998161225d565b905091905056fea2646970667358221220d768bad058fd223561b9a47fdd84d9969cb32c8a92a8aee1a20f2c4f84dfa95964736f6c634300080b0033",
  "immutableReferences": {},
  "source": "// SPDX-License-Identifier: MIT\r\npragma solidity ^0.8.0;\r\n\r\ncontract FederatedLearning {\r\n    address public taskPublisher;\r\n    string public globalModelHash;\r\n    string public modelParameterHash;\r\n    uint public updatesSubmitted;\r\n    bool public trainingTaskStarted;\r\n    bool public trainingTaskCompleted;\r\n    bool public registrationOpen;\r\n    uint public rewardPerUpdate;\r\n\r\n    struct Participant {\r\n        bool registered;\r\n        string localModelUpdateHash;\r\n    }\r\n\r\n    address[] public participantAddresses;\r\n    mapping(address => Participant) public participants;\r\n\r\n    modifier onlyTaskPublisher() {\r\n        require(\r\n            msg.sender == taskPublisher,\r\n            \"Only the task publisher can call this function\"\r\n        );\r\n        _;\r\n    }\r\n\r\n    constructor() {\r\n        taskPublisher = msg.sender;\r\n        trainingTaskCompleted = false;\r\n        registrationOpen = false;\r\n        \r\n    }\r\n\r\n    function publishTrainingTask(\r\n        string memory _globalModelHash,\r\n        string memory _modelParameterHash\r\n        // float _rewardPerUpdate\r\n    ) public onlyTaskPublisher {\r\n        globalModelHash = _globalModelHash;\r\n        modelParameterHash = _modelParameterHash;\r\n        updatesSubmitted = 0;\r\n        trainingTaskCompleted = false;\r\n        registrationOpen = false;\r\n        // rewardPerUpdate = _rewardPerUpdate;\r\n\r\n        // Clear participantAddresses array\r\n        for (uint i = 0; i < participantAddresses.length; i++) {\r\n            delete participants[participantAddresses[i]];\r\n        }\r\n        delete participantAddresses;\r\n        participantAddresses = new address[](0);\r\n    }\r\n\r\n    function openRegistration() public onlyTaskPublisher {\r\n        registrationOpen = true;\r\n    }\r\n\r\n    function closeRegistration() public onlyTaskPublisher {\r\n        registrationOpen = false;\r\n    }\r\n\r\n    event TrainingTaskStarted();\r\n    function startTrainingTask() public onlyTaskPublisher {\r\n        require(\r\n            registrationOpen == false,\r\n            \"Cannot start training task while registration is open\"\r\n        );\r\n        require(\r\n            trainingTaskCompleted == false,\r\n            \"Cannot start training task after it has been completed\"\r\n        );\r\n        trainingTaskStarted = true;\r\n        emit TrainingTaskStarted();\r\n    }\r\n\r\n    event ParticipantEnrolled(address indexed participant);\r\n    event ParticipantDeregistered(address indexed participant);\r\n    function enrollParticipant() public {\r\n        require(registrationOpen, \"Registration is currently closed\");\r\n\r\n        require(\r\n            !participants[msg.sender].registered,\r\n            \"This address is already registered as a participant\"\r\n        );\r\n        participants[msg.sender] = Participant(true, \"\");\r\n        participantAddresses.push(msg.sender);\r\n        emit ParticipantEnrolled(msg.sender);\r\n    }\r\n\r\n    function deregisterParticipant(\r\n        address _participantAddress\r\n    ) public onlyTaskPublisher {\r\n        delete participants[_participantAddress];\r\n        emit ParticipantDeregistered(_participantAddress);\r\n    }\r\n\r\n    event AllUpdatesSubmitted();\r\n    function uploadLocalModelUpdate(\r\n        string memory _localModelUpdateHash\r\n    ) public {\r\n        require(trainingTaskStarted, \"Training task has not started yet\");\r\n        require(\r\n            participants[msg.sender].registered,\r\n            \"Only registered participants can submit updates\"\r\n        );\r\n        require(\r\n            !trainingTaskCompleted,\r\n            \"Training task has already been completed\"\r\n        );\r\n        participants[msg.sender].localModelUpdateHash = _localModelUpdateHash;\r\n        updatesSubmitted++;\r\n        payable(msg.sender).transfer(rewardPerUpdate);  // Transfer the reward to the participant\r\n        if (updatesSubmitted >= participantAddresses.length) {\r\n            emit AllUpdatesSubmitted();\r\n        }\r\n    }\r\n\r\n    function aggregateLocalModelUpdates()\r\n        public\r\n        onlyTaskPublisher\r\n        returns (string[] memory)\r\n    {\r\n        require(\r\n            updatesSubmitted >= participantAddresses.length,\r\n            \"All participants must submit their updates before aggregation\"\r\n        );\r\n        string[] memory localModelUpdateHashes = new string[](\r\n            participantAddresses.length\r\n        );\r\n        for (uint i = 0; i < participantAddresses.length; i++) {\r\n            localModelUpdateHashes[i] = participants[participantAddresses[i]]\r\n                .localModelUpdateHash;\r\n            participants[participantAddresses[i]].localModelUpdateHash = \"\"; // Reset update hash\r\n        }\r\n        updatesSubmitted = 0; // Reset the counter\r\n        return localModelUpdateHashes;\r\n    }\r\n\r\n    event GlobalModelUpdated(\r\n        address indexed taskPublisher,\r\n        string newGlobalModelHash\r\n    );\r\n    function updateGlobalModelHash(\r\n        string memory _globalModelHash\r\n    ) public onlyTaskPublisher {\r\n        globalModelHash = _globalModelHash;\r\n        emit GlobalModelUpdated(taskPublisher, _globalModelHash);\r\n    }\r\n\r\n    event TrainingTaskCompleted();\r\n    function markTrainingTaskAsCompleted() public onlyTaskPublisher {\r\n        trainingTaskCompleted = true;\r\n        emit TrainingTaskCompleted();\r\n    }\r\n}\r\n",
  "sourcePath": "C:\\Users\\sudama dhakad\\Desktop\\federated-learning\\contracts\\FederatedLearning.sol",
  "compiler": {
    "name": "solc",
    "version": "0.8.11+commit.d7f03943.Emscripten.clang"
  },
  "schemaVersion": "3.4.16",
  "updatedAt": "2024-04-23T14:31:21.081Z",
  "networkType": "ethereum",
  "devdoc": {
    "kind": "dev",
    "methods": {},
    "version": 1
  },
  "userdoc": {
    "kind": "user",
    "methods": {},
    "version": 1
  }
}