{
  "contractName": "FederatedLearning",
  "abi": [
    {
      "inputs": [],
      "stateMutability": "nonpayable",
      "type": "constructor"
    },
    {
      "anonymous": false,
      "inputs": [],
      "name": "AllUpdatesSubmitted",
      "type": "event"
    },
    {
      "anonymous": false,
      "inputs": [
        {
          "indexed": true,
          "internalType": "address",
          "name": "taskPublisher",
          "type": "address"
        },
        {
          "indexed": false,
          "internalType": "string",
          "name": "newGlobalModelHash",
          "type": "string"
        }
      ],
      "name": "GlobalModelUpdated",
      "type": "event"
    },
    {
      "anonymous": false,
      "inputs": [
        {
          "indexed": true,
          "internalType": "address",
          "name": "participant",
          "type": "address"
        }
      ],
      "name": "ParticipantDeregistered",
      "type": "event"
    },
    {
      "anonymous": false,
      "inputs": [
        {
          "indexed": true,
          "internalType": "address",
          "name": "participant",
          "type": "address"
        }
      ],
      "name": "ParticipantEnrolled",
      "type": "event"
    },
    {
      "anonymous": false,
      "inputs": [],
      "name": "TrainingTaskCompleted",
      "type": "event"
    },
    {
      "anonymous": false,
      "inputs": [],
      "name": "TrainingTaskStarted",
      "type": "event"
    },
    {
      "inputs": [],
      "name": "globalModelHash",
      "outputs": [
        {
          "internalType": "string",
          "name": "",
          "type": "string"
        }
      ],
      "stateMutability": "view",
      "type": "function",
      "constant": true
    },
    {
      "inputs": [],
      "name": "modelParameterHash",
      "outputs": [
        {
          "internalType": "string",
          "name": "",
          "type": "string"
        }
      ],
      "stateMutability": "view",
      "type": "function",
      "constant": true
    },
    {
      "inputs": [
        {
          "internalType": "uint256",
          "name": "",
          "type": "uint256"
        }
      ],
      "name": "participantAddresses",
      "outputs": [
        {
          "internalType": "address",
          "name": "",
          "type": "address"
        }
      ],
      "stateMutability": "view",
      "type": "function",
      "constant": true
    },
    {
      "inputs": [
        {
          "internalType": "address",
          "name": "",
          "type": "address"
        }
      ],
      "name": "participants",
      "outputs": [
        {
          "internalType": "bool",
          "name": "registered",
          "type": "bool"
        },
        {
          "internalType": "string",
          "name": "localModelUpdateHash",
          "type": "string"
        }
      ],
      "stateMutability": "view",
      "type": "function",
      "constant": true
    },
    {
      "inputs": [],
      "name": "registrationOpen",
      "outputs": [
        {
          "internalType": "bool",
          "name": "",
          "type": "bool"
        }
      ],
      "stateMutability": "view",
      "type": "function",
      "constant": true
    },
    {
      "inputs": [],
      "name": "taskPublisher",
      "outputs": [
        {
          "internalType": "address",
          "name": "",
          "type": "address"
        }
      ],
      "stateMutability": "view",
      "type": "function",
      "constant": true
    },
    {
      "inputs": [],
      "name": "trainingTaskCompleted",
      "outputs": [
        {
          "internalType": "bool",
          "name": "",
          "type": "bool"
        }
      ],
      "stateMutability": "view",
      "type": "function",
      "constant": true
    },
    {
      "inputs": [],
      "name": "trainingTaskStarted",
      "outputs": [
        {
          "internalType": "bool",
          "name": "",
          "type": "bool"
        }
      ],
      "stateMutability": "view",
      "type": "function",
      "constant": true
    },
    {
      "inputs": [],
      "name": "updatesSubmitted",
      "outputs": [
        {
          "internalType": "uint256",
          "name": "",
          "type": "uint256"
        }
      ],
      "stateMutability": "view",
      "type": "function",
      "constant": true
    },
    {
      "inputs": [
        {
          "internalType": "string",
          "name": "_globalModelHash",
          "type": "string"
        },
        {
          "internalType": "string",
          "name": "_modelParameterHash",
          "type": "string"
        }
      ],
      "name": "publishTrainingTask",
      "outputs": [],
      "stateMutability": "nonpayable",
      "type": "function"
    },
    {
      "inputs": [],
      "name": "openRegistration",
      "outputs": [],
      "stateMutability": "nonpayable",
      "type": "function"
    },
    {
      "inputs": [],
      "name": "closeRegistration",
      "outputs": [],
      "stateMutability": "nonpayable",
      "type": "function"
    },
    {
      "inputs": [],
      "name": "startTrainingTask",
      "outputs": [],
      "stateMutability": "nonpayable",
      "type": "function"
    },
    {
      "inputs": [],
      "name": "enrollParticipant",
      "outputs": [],
      "stateMutability": "nonpayable",
      "type": "function"
    },
    {
      "inputs": [
        {
          "internalType": "address",
          "name": "_participantAddress",
          "type": "address"
        }
      ],
      "name": "deregisterParticipant",
      "outputs": [],
      "stateMutability": "nonpayable",
      "type": "function"
    },
    {
      "inputs": [
        {
          "internalType": "string",
          "name": "_localModelUpdateHash",
          "type": "string"
        }
      ],
      "name": "uploadLocalModelUpdate",
      "outputs": [],
      "stateMutability": "nonpayable",
      "type": "function"
    },
    {
      "inputs": [],
      "name": "aggregateLocalModelUpdates",
      "outputs": [
        {
          "internalType": "string[]",
          "name": "",
          "type": "string[]"
        }
      ],
      "stateMutability": "nonpayable",
      "type": "function"
    },
    {
      "inputs": [
        {
          "internalType": "string",
          "name": "_globalModelHash",
          "type": "string"
        }
      ],
      "name": "updateGlobalModelHash",
      "outputs": [],
      "stateMutability": "nonpayable",
      "type": "function"
    },
    {
      "inputs": [],
      "name": "markTrainingTaskAsCompleted",
      "outputs": [],
      "stateMutability": "nonpayable",
      "type": "function"
    }
  ],
  "bytecode": "0x608060405234801561001057600080fd5b50336000806101000a81548173ffffffffffffffffffffffffffffffffffffffff021916908373ffffffffffffffffffffffffffffffffffffffff1602179055506000600460016101000a81548160ff0219169083151502179055506000600460026101000a81548160ff021916908315150217905550612174806100966000396000f3fe608060405234801561001057600080fd5b50600436106101215760003560e01c80635f3af41a116100ad5780638e68212b116100715780638e68212b1461029b578063bca12847146102b7578063cf4fdf32146102d5578063d06e4ee7146102f1578063d96ee8ac146102fb57610121565b80635f3af41a1461022d5780635f44531a1461023757806360f61a5614610255578063736f88cd146102735780637dc673bc1461029157610121565b8063279b103f116100f4578063279b103f1461019b5780633b346f35146101b95780634bfbd716146101d75780634ce13b21146101e157806354ffbddb146101fd57610121565b806309e69ede146101265780630f2943c2146101575780631388253b146101755780631e10ae621461017f575b600080fd5b610140600480360381019061013b9190611611565b610319565b60405161014e9291906116f2565b60405180910390f35b61015f6103d2565b60405161016c919061182e565b60405180910390f35b61017d610701565b005b61019960048036038101906101949190611985565b61092e565b005b6101a3610b09565b6040516101b091906119dd565b60405180910390f35b6101c1610b2d565b6040516101ce91906119f8565b60405180910390f35b6101df610bbb565b005b6101fb60048036038101906101f69190611a1a565b610d3e565b005b61021760048036038101906102129190611ac8565b610f12565b60405161022491906119dd565b60405180910390f35b610235610f51565b005b61023f611028565b60405161024c91906119f8565b60405180910390f35b61025d6110b6565b60405161026a9190611b04565b60405180910390f35b61027b6110bc565b6040516102889190611b1f565b60405180910390f35b6102996110cf565b005b6102b560048036038101906102b09190611611565b61117a565b005b6102bf6112b4565b6040516102cc9190611b1f565b60405180910390f35b6102ef60048036038101906102ea9190611985565b6112c7565b005b6102f96113dd565b005b610303611488565b6040516103109190611b1f565b60405180910390f35b60066020528060005260406000206000915090508060000160009054906101000a900460ff169080600101805461034f90611b69565b80601f016020809104026020016040519081016040528092919081815260200182805461037b90611b69565b80156103c85780601f1061039d576101008083540402835291602001916103c8565b820191906000526020600020905b8154815290600101906020018083116103ab57829003601f168201915b5050505050905082565b606060008054906101000a900473ffffffffffffffffffffffffffffffffffffffff1673ffffffffffffffffffffffffffffffffffffffff163373ffffffffffffffffffffffffffffffffffffffff1614610462576040517f08c379a000000000000000000000000000000000000000000000000000000000815260040161045990611c0d565b60405180910390fd5b60058054905060035410156104ac576040517f08c379a00000000000000000000000000000000000000000000000000000000081526004016104a390611c9f565b60405180910390fd5b600060058054905067ffffffffffffffff8111156104cd576104cc61185a565b5b60405190808252806020026020018201604052801561050057816020015b60608152602001906001900390816104eb5790505b50905060005b6005805490508110156106f157600660006005838154811061052b5761052a611cbf565b5b9060005260206000200160009054906101000a900473ffffffffffffffffffffffffffffffffffffffff1673ffffffffffffffffffffffffffffffffffffffff1673ffffffffffffffffffffffffffffffffffffffff168152602001908152602001600020600101805461059e90611b69565b80601f01602080910402602001604051908101604052809291908181526020018280546105ca90611b69565b80156106175780601f106105ec57610100808354040283529160200191610617565b820191906000526020600020905b8154815290600101906020018083116105fa57829003601f168201915b505050505082828151811061062f5761062e611cbf565b5b602002602001018190525060405180602001604052806000815250600660006005848154811061066257610661611cbf565b5b9060005260206000200160009054906101000a900473ffffffffffffffffffffffffffffffffffffffff1673ffffffffffffffffffffffffffffffffffffffff1673ffffffffffffffffffffffffffffffffffffffff16815260200190815260200160002060010190805190602001906106dd92919061149b565b5080806106e990611d1d565b915050610506565b5060006003819055508091505090565b600460029054906101000a900460ff16610750576040517f08c379a000000000000000000000000000000000000000000000000000000000815260040161074790611db2565b60405180910390fd5b600660003373ffffffffffffffffffffffffffffffffffffffff1673ffffffffffffffffffffffffffffffffffffffff16815260200190815260200160002060000160009054906101000a900460ff16156107e0576040517f08c379a00000000000000000000000000000000000000000000000000000000081526004016107d790611e44565b60405180910390fd5b604051806040016040528060011515815260200160405180602001604052806000815250815250600660003373ffffffffffffffffffffffffffffffffffffffff1673ffffffffffffffffffffffffffffffffffffffff16815260200190815260200160002060008201518160000160006101000a81548160ff021916908315150217905550602082015181600101908051906020019061088292919061149b565b509050506005339080600181540180825580915050600190039060005260206000200160009091909190916101000a81548173ffffffffffffffffffffffffffffffffffffffff021916908373ffffffffffffffffffffffffffffffffffffffff1602179055503373ffffffffffffffffffffffffffffffffffffffff167fd1de25e5823e89fe190deea4ee5d89f72828597f5a1f4f51995dd66f63ecc85460405160405180910390a2565b600460009054906101000a900460ff1661097d576040517f08c379a000000000000000000000000000000000000000000000000000000000815260040161097490611ed6565b60405180910390fd5b600660003373ffffffffffffffffffffffffffffffffffffffff1673ffffffffffffffffffffffffffffffffffffffff16815260200190815260200160002060000160009054906101000a900460ff16610a0c576040517f08c379a0000000000000000000000000000000000000000000000000000000008152600401610a0390611f68565b60405180910390fd5b600460019054906101000a900460ff1615610a5c576040517f08c379a0000000000000000000000000000000000000000000000000000000008152600401610a5390611ffa565b60405180910390fd5b80600660003373ffffffffffffffffffffffffffffffffffffffff1673ffffffffffffffffffffffffffffffffffffffff1681526020019081526020016000206001019080519060200190610ab292919061149b565b5060036000815480929190610ac690611d1d565b919050555060058054905060035410610b06577fc3c236c8e8278c37ac1286a91c38c5de2a138caf70716d8d620bf45c17cc83f160405160405180910390a15b50565b60008054906101000a900473ffffffffffffffffffffffffffffffffffffffff1681565b60018054610b3a90611b69565b80601f0160208091040260200160405190810160405280929190818152602001828054610b6690611b69565b8015610bb35780601f10610b8857610100808354040283529160200191610bb3565b820191906000526020600020905b815481529060010190602001808311610b9657829003601f168201915b505050505081565b60008054906101000a900473ffffffffffffffffffffffffffffffffffffffff1673ffffffffffffffffffffffffffffffffffffffff163373ffffffffffffffffffffffffffffffffffffffff1614610c49576040517f08c379a0000000000000000000000000000000000000000000000000000000008152600401610c4090611c0d565b60405180910390fd5b60001515600460029054906101000a900460ff16151514610c9f576040517f08c379a0000000000000000000000000000000000000000000000000000000008152600401610c969061208c565b60405180910390fd5b60001515600460019054906101000a900460ff16151514610cf5576040517f08c379a0000000000000000000000000000000000000000000000000000000008152600401610cec9061211e565b60405180910390fd5b6001600460006101000a81548160ff0219169083151502179055507fc14de606c29fd112d2c1d5eeeecf32145328f3f7feb53a0225da7e90935f570f60405160405180910390a1565b60008054906101000a900473ffffffffffffffffffffffffffffffffffffffff1673ffffffffffffffffffffffffffffffffffffffff163373ffffffffffffffffffffffffffffffffffffffff1614610dcc576040517f08c379a0000000000000000000000000000000000000000000000000000000008152600401610dc390611c0d565b60405180910390fd5b8160019080519060200190610de292919061149b565b508060029080519060200190610df992919061149b565b5060006003819055506000600460016101000a81548160ff0219169083151502179055506000600460026101000a81548160ff02191690831515021790555060005b600580549050811015610eff576006600060058381548110610e6057610e5f611cbf565b5b9060005260206000200160009054906101000a900473ffffffffffffffffffffffffffffffffffffffff1673ffffffffffffffffffffffffffffffffffffffff1673ffffffffffffffffffffffffffffffffffffffff168152602001908152602001600020600080820160006101000a81549060ff0219169055600182016000610eea9190611521565b50508080610ef790611d1d565b915050610e3b565b5060056000610f0e9190611561565b5050565b60058181548110610f2257600080fd5b906000526020600020016000915054906101000a900473ffffffffffffffffffffffffffffffffffffffff1681565b60008054906101000a900473ffffffffffffffffffffffffffffffffffffffff1673ffffffffffffffffffffffffffffffffffffffff163373ffffffffffffffffffffffffffffffffffffffff1614610fdf576040517f08c379a0000000000000000000000000000000000000000000000000000000008152600401610fd690611c0d565b60405180910390fd5b6001600460016101000a81548160ff0219169083151502179055507ffec083bc5cddce37b6964fffbe16dc3939bba878285738b6511e6abb2180120760405160405180910390a1565b6002805461103590611b69565b80601f016020809104026020016040519081016040528092919081815260200182805461106190611b69565b80156110ae5780601f10611083576101008083540402835291602001916110ae565b820191906000526020600020905b81548152906001019060200180831161109157829003601f168201915b505050505081565b60035481565b600460029054906101000a900460ff1681565b60008054906101000a900473ffffffffffffffffffffffffffffffffffffffff1673ffffffffffffffffffffffffffffffffffffffff163373ffffffffffffffffffffffffffffffffffffffff161461115d576040517f08c379a000000000000000000000000000000000000000000000000000000000815260040161115490611c0d565b60405180910390fd5b6000600460026101000a81548160ff021916908315150217905550565b60008054906101000a900473ffffffffffffffffffffffffffffffffffffffff1673ffffffffffffffffffffffffffffffffffffffff163373ffffffffffffffffffffffffffffffffffffffff1614611208576040517f08c379a00000000000000000000000000000000000000000000000000000000081526004016111ff90611c0d565b60405180910390fd5b600660008273ffffffffffffffffffffffffffffffffffffffff1673ffffffffffffffffffffffffffffffffffffffff168152602001908152602001600020600080820160006101000a81549060ff021916905560018201600061126c9190611521565b50508073ffffffffffffffffffffffffffffffffffffffff167ffc239f381c2de7625fbd483171899d597fa50aa47f5cf61ec4b9d2d3e4bf90ba60405160405180910390a250565b600460009054906101000a900460ff1681565b60008054906101000a900473ffffffffffffffffffffffffffffffffffffffff1673ffffffffffffffffffffffffffffffffffffffff163373ffffffffffffffffffffffffffffffffffffffff1614611355576040517f08c379a000000000000000000000000000000000000000000000000000000000815260040161134c90611c0d565b60405180910390fd5b806001908051906020019061136b92919061149b565b5060008054906101000a900473ffffffffffffffffffffffffffffffffffffffff1673ffffffffffffffffffffffffffffffffffffffff167f3759b1b0bf89e3dd202b6c7a3610b4ffccb2a53f2a78c84e07032f4e1a74fe35826040516113d291906119f8565b60405180910390a250565b60008054906101000a900473ffffffffffffffffffffffffffffffffffffffff1673ffffffffffffffffffffffffffffffffffffffff163373ffffffffffffffffffffffffffffffffffffffff161461146b576040517f08c379a000000000000000000000000000000000000000000000000000000000815260040161146290611c0d565b60405180910390fd5b6001600460026101000a81548160ff021916908315150217905550565b600460019054906101000a900460ff1681565b8280546114a790611b69565b90600052602060002090601f0160209004810192826114c95760008555611510565b82601f106114e257805160ff1916838001178555611510565b82800160010185558215611510579182015b8281111561150f5782518255916020019190600101906114f4565b5b50905061151d9190611582565b5090565b50805461152d90611b69565b6000825580601f1061153f575061155e565b601f01602090049060005260206000209081019061155d9190611582565b5b50565b508054600082559060005260206000209081019061157f9190611582565b50565b5b8082111561159b576000816000905550600101611583565b5090565b6000604051905090565b600080fd5b600080fd5b600073ffffffffffffffffffffffffffffffffffffffff82169050919050565b60006115de826115b3565b9050919050565b6115ee816115d3565b81146115f957600080fd5b50565b60008135905061160b816115e5565b92915050565b600060208284031215611627576116266115a9565b5b6000611635848285016115fc565b91505092915050565b60008115159050919050565b6116538161163e565b82525050565b600081519050919050565b600082825260208201905092915050565b60005b83811015611693578082015181840152602081019050611678565b838111156116a2576000848401525b50505050565b6000601f19601f8301169050919050565b60006116c482611659565b6116ce8185611664565b93506116de818560208601611675565b6116e7816116a8565b840191505092915050565b6000604082019050611707600083018561164a565b818103602083015261171981846116b9565b90509392505050565b600081519050919050565b600082825260208201905092915050565b6000819050602082019050919050565b600082825260208201905092915050565b600061176a82611659565b611774818561174e565b9350611784818560208601611675565b61178d816116a8565b840191505092915050565b60006117a4838361175f565b905092915050565b6000602082019050919050565b60006117c482611722565b6117ce818561172d565b9350836020820285016117e08561173e565b8060005b8581101561181c57848403895281516117fd8582611798565b9450611808836117ac565b925060208a019950506001810190506117e4565b50829750879550505050505092915050565b6000602082019050818103600083015261184881846117b9565b905092915050565b600080fd5b600080fd5b7f4e487b7100000000000000000000000000000000000000000000000000000000600052604160045260246000fd5b611892826116a8565b810181811067ffffffffffffffff821117156118b1576118b061185a565b5b80604052505050565b60006118c461159f565b90506118d08282611889565b919050565b600067ffffffffffffffff8211156118f0576118ef61185a565b5b6118f9826116a8565b9050602081019050919050565b82818337600083830152505050565b6000611928611923846118d5565b6118ba565b90508281526020810184848401111561194457611943611855565b5b61194f848285611906565b509392505050565b600082601f83011261196c5761196b611850565b5b813561197c848260208601611915565b91505092915050565b60006020828403121561199b5761199a6115a9565b5b600082013567ffffffffffffffff8111156119b9576119b86115ae565b5b6119c584828501611957565b91505092915050565b6119d7816115d3565b82525050565b60006020820190506119f260008301846119ce565b92915050565b60006020820190508181036000830152611a1281846116b9565b905092915050565b60008060408385031215611a3157611a306115a9565b5b600083013567ffffffffffffffff811115611a4f57611a4e6115ae565b5b611a5b85828601611957565b925050602083013567ffffffffffffffff811115611a7c57611a7b6115ae565b5b611a8885828601611957565b9150509250929050565b6000819050919050565b611aa581611a92565b8114611ab057600080fd5b50565b600081359050611ac281611a9c565b92915050565b600060208284031215611ade57611add6115a9565b5b6000611aec84828501611ab3565b91505092915050565b611afe81611a92565b82525050565b6000602082019050611b196000830184611af5565b92915050565b6000602082019050611b34600083018461164a565b92915050565b7f4e487b7100000000000000000000000000000000000000000000000000000000600052602260045260246000fd5b60006002820490506001821680611b8157607f821691505b60208210811415611b9557611b94611b3a565b5b50919050565b7f4f6e6c7920746865207461736b207075626c69736865722063616e2063616c6c60008201527f20746869732066756e6374696f6e000000000000000000000000000000000000602082015250565b6000611bf7602e83611664565b9150611c0282611b9b565b604082019050919050565b60006020820190508181036000830152611c2681611bea565b9050919050565b7f416c6c207061727469636970616e7473206d757374207375626d69742074686560008201527f69722075706461746573206265666f7265206167677265676174696f6e000000602082015250565b6000611c89603d83611664565b9150611c9482611c2d565b604082019050919050565b60006020820190508181036000830152611cb881611c7c565b9050919050565b7f4e487b7100000000000000000000000000000000000000000000000000000000600052603260045260246000fd5b7f4e487b7100000000000000000000000000000000000000000000000000000000600052601160045260246000fd5b6000611d2882611a92565b91507fffffffffffffffffffffffffffffffffffffffffffffffffffffffffffffffff821415611d5b57611d5a611cee565b5b600182019050919050565b7f526567697374726174696f6e2069732063757272656e746c7920636c6f736564600082015250565b6000611d9c602083611664565b9150611da782611d66565b602082019050919050565b60006020820190508181036000830152611dcb81611d8f565b9050919050565b7f54686973206164647265737320697320616c726561647920726567697374657260008201527f65642061732061207061727469636970616e7400000000000000000000000000602082015250565b6000611e2e603383611664565b9150611e3982611dd2565b604082019050919050565b60006020820190508181036000830152611e5d81611e21565b9050919050565b7f547261696e696e67207461736b20686173206e6f74207374617274656420796560008201527f7400000000000000000000000000000000000000000000000000000000000000602082015250565b6000611ec0602183611664565b9150611ecb82611e64565b604082019050919050565b60006020820190508181036000830152611eef81611eb3565b9050919050565b7f4f6e6c792072656769737465726564207061727469636970616e74732063616e60008201527f207375626d697420757064617465730000000000000000000000000000000000602082015250565b6000611f52602f83611664565b9150611f5d82611ef6565b604082019050919050565b60006020820190508181036000830152611f8181611f45565b9050919050565b7f547261696e696e67207461736b2068617320616c7265616479206265656e206360008201527f6f6d706c65746564000000000000000000000000000000000000000000000000602082015250565b6000611fe4602883611664565b9150611fef82611f88565b604082019050919050565b6000602082019050818103600083015261201381611fd7565b9050919050565b7f43616e6e6f7420737461727420747261696e696e67207461736b207768696c6560008201527f20726567697374726174696f6e206973206f70656e0000000000000000000000602082015250565b6000612076603583611664565b91506120818261201a565b604082019050919050565b600060208201905081810360008301526120a581612069565b9050919050565b7f43616e6e6f7420737461727420747261696e696e67207461736b20616674657260008201527f20697420686173206265656e20636f6d706c6574656400000000000000000000602082015250565b6000612108603683611664565b9150612113826120ac565b604082019050919050565b60006020820190508181036000830152612137816120fb565b905091905056fea26469706673582212200bb0eb5f567378c8d1afd6c2f1e3b1227059e35b2672aa139728a2c73bb6edc564736f6c634300080b0033",
  "immutableReferences": {},
  "source": "// SPDX-License-Identifier: MIT\r\npragma solidity ^0.8.0;\r\n\r\ncontract FederatedLearning {\r\n    address public taskPublisher;\r\n    string public globalModelHash;\r\n    string public modelParameterHash;\r\n    uint public updatesSubmitted;\r\n    bool public trainingTaskStarted;\r\n    bool public trainingTaskCompleted;\r\n    bool public registrationOpen;\r\n\r\n    struct Participant {\r\n        bool registered;\r\n        string localModelUpdateHash;\r\n    }\r\n\r\n    address[] public participantAddresses;\r\n    mapping(address => Participant) public participants;\r\n\r\n    modifier onlyTaskPublisher() {\r\n        require(\r\n            msg.sender == taskPublisher,\r\n            \"Only the task publisher can call this function\"\r\n        );\r\n        _;\r\n    }\r\n\r\n    constructor() {\r\n        taskPublisher = msg.sender;\r\n        trainingTaskCompleted = false;\r\n        registrationOpen = false;\r\n    }\r\n\r\n    function publishTrainingTask(\r\n        string memory _globalModelHash,\r\n        string memory _modelParameterHash\r\n    ) public onlyTaskPublisher {\r\n        globalModelHash = _globalModelHash;\r\n        modelParameterHash = _modelParameterHash;\r\n        updatesSubmitted = 0;\r\n        trainingTaskCompleted = false;\r\n        registrationOpen = false;\r\n\r\n        // Clear participantAddresses array\r\n\r\n        for (uint i = 0; i < participantAddresses.length; i++) {\r\n            delete participants[participantAddresses[i]];\r\n        }\r\n        delete participantAddresses;\r\n    }\r\n\r\n    function openRegistration() public onlyTaskPublisher {\r\n        registrationOpen = true;\r\n    }\r\n\r\n    function closeRegistration() public onlyTaskPublisher {\r\n        registrationOpen = false;\r\n    }\r\n\r\n    event TrainingTaskStarted();\r\n    function startTrainingTask() public onlyTaskPublisher {\r\n        require(\r\n            registrationOpen == false,\r\n            \"Cannot start training task while registration is open\"\r\n        );\r\n        require(\r\n            trainingTaskCompleted == false,\r\n            \"Cannot start training task after it has been completed\"\r\n        );\r\n        trainingTaskStarted = true;\r\n        emit TrainingTaskStarted();\r\n    }\r\n\r\n    event ParticipantEnrolled(address indexed participant);\r\n    event ParticipantDeregistered(address indexed participant);\r\n    function enrollParticipant() public {\r\n        require(registrationOpen, \"Registration is currently closed\");\r\n\r\n        require(\r\n            !participants[msg.sender].registered,\r\n            \"This address is already registered as a participant\"\r\n        );\r\n        participants[msg.sender] = Participant(true, \"\");\r\n        participantAddresses.push(msg.sender);\r\n        emit ParticipantEnrolled(msg.sender);\r\n    }\r\n\r\n    function deregisterParticipant(\r\n        address _participantAddress\r\n    ) public onlyTaskPublisher {\r\n        delete participants[_participantAddress];\r\n        emit ParticipantDeregistered(_participantAddress);\r\n    }\r\n\r\n    event AllUpdatesSubmitted();\r\n    function uploadLocalModelUpdate(\r\n        string memory _localModelUpdateHash\r\n    ) public {\r\n        require(trainingTaskStarted, \"Training task has not started yet\");\r\n        require(\r\n            participants[msg.sender].registered,\r\n            \"Only registered participants can submit updates\"\r\n        );\r\n        require(\r\n            !trainingTaskCompleted,\r\n            \"Training task has already been completed\"\r\n        );\r\n        participants[msg.sender].localModelUpdateHash = _localModelUpdateHash;\r\n        updatesSubmitted++;\r\n        if (updatesSubmitted >= participantAddresses.length) {\r\n            emit AllUpdatesSubmitted();\r\n        }\r\n    }\r\n\r\n    function aggregateLocalModelUpdates()\r\n        public\r\n        onlyTaskPublisher\r\n        returns (string[] memory)\r\n    {\r\n        require(\r\n            updatesSubmitted >= participantAddresses.length,\r\n            \"All participants must submit their updates before aggregation\"\r\n        );\r\n        string[] memory localModelUpdateHashes = new string[](\r\n            participantAddresses.length\r\n        );\r\n        for (uint i = 0; i < participantAddresses.length; i++) {\r\n            localModelUpdateHashes[i] = participants[participantAddresses[i]]\r\n                .localModelUpdateHash;\r\n            participants[participantAddresses[i]].localModelUpdateHash = \"\"; // Reset update hash\r\n        }\r\n        updatesSubmitted = 0; // Reset the counter\r\n        return localModelUpdateHashes;\r\n    }\r\n\r\n    event GlobalModelUpdated(\r\n        address indexed taskPublisher,\r\n        string newGlobalModelHash\r\n    );\r\n    function updateGlobalModelHash(\r\n        string memory _globalModelHash\r\n    ) public onlyTaskPublisher {\r\n        globalModelHash = _globalModelHash;\r\n        emit GlobalModelUpdated(taskPublisher, _globalModelHash);\r\n    }\r\n\r\n    event TrainingTaskCompleted();\r\n    function markTrainingTaskAsCompleted() public onlyTaskPublisher {\r\n        trainingTaskCompleted = true;\r\n        emit TrainingTaskCompleted();\r\n    }\r\n}\r\n",
  "sourcePath": "C:\\Users\\sudama dhakad\\Desktop\\federated-learning\\contracts\\FederatedLearning.sol",
  "compiler": {
    "name": "solc",
    "version": "0.8.11+commit.d7f03943.Emscripten.clang"
  },
  "schemaVersion": "3.4.16",
  "updatedAt": "2024-04-14T08:27:28.002Z",
  "networkType": "ethereum",
  "devdoc": {
    "kind": "dev",
    "methods": {},
    "version": 1
  },
  "userdoc": {
    "kind": "user",
    "methods": {},
    "version": 1
  }
}